:020000040800F2
:1000000000040020C10100087120000871200008D0
:10001000712000087120000871200008712000087C
:10002000712000087120000871200008811100086B
:10003000712000087120000871200008712000085C
:1000400071200008B1140008C113000891130008C2
:100050007120000871200008911600086116000840
:100060003116000801160008D1150008712000089B
:10007000712000087120000871200008712000081C
:10008000712000087120000871200008F11F00088D
:10009000811F0008E11E0008911800086115000882
:1000A0007120000861530008712000080153000806
:1000B0008139000871200008915200087120000861
:1000C00071200008712000087120000871200008CC
:1000D000712000087120000871200008B147000855
:1000E000E114000881140008511400087120000870
:1000F000712000087120000871200008712000089C
:10010000712000087120000871200008712000088B
:10011000712000087120000871200008712000087B
:10012000712000087120000871200008712000086B
:10013000712000087120000821140008D11F000858
:10014000611F0008C11E00087118000891450008D1
:10015000712000087120000871200008712000083B
:10016000712000087120000871200008712000082B
:10017000F1130008712000087120000871200008A8
:10018000712000087120000871200008712000080B
:1001900071200008712000087120000871200008FB
:1001A00071200008712000087120000871200008EB
:1001B00071200008712000087120000871200008DB
:1001C00072B6214880F30988022080F31488BFF3B7
:1001D0006F8F03F09DFB03F013FB1C481C491D4A65
:1001E00091423CBF41F8040BFAE71B49164A914281
:1001F0003CBF41F8040BFAE71849194A194B9A42D7
:100200003EBF51F8040B42F8040BF8E700201649F2
:10021000164A91423CBF41F8040BFAE703F070FB29
:10022000134C144DAC4203DA54F8041B8847F9E729
:1002300002F04EFE104C114DAC4203DA54F8041B90
:100240008847F9E703F054BB000800205555555581
:1002500000000020000400200004002008780008AE
:1002600000080020FC0C0020000D0020AC2600201F
:10027000C0010008C0010008C0010008C00100085A
:100280002DE9F04FC1F80CD0D0F80CD0BDE8F08FBC
:10029000002383F311882846A047002003F018FBB1
:1002A00003F01EFB00DFFEE700000000000000007E
:1002B00081F0004102E000BF83F0004330B54FEA17
:1002C00041044FEA430594EA050F08BF90EA020F84
:1002D0001FBF54EA000C55EA020C7FEA645C7FEA17
:1002E000655C00F0E2804FEA5454D4EB5555B8BF3A
:1002F0006D420CDD2C4480EA020281EA030382EAAB
:10030000000083EA010180EA020281EA0303362D3C
:1003100088BF30BD11F0004F4FEA01314FF4801C0F
:100320004CEA113102D0404261EB410113F0004F21
:100330004FEA03334CEA133302D0524263EB4303D8
:1003400094EA050F00F0A780A4F10104D5F1200E76
:100350000DDB02FA0EFC22FA05F2801841F10001D1
:1003600003FA0EF2801843FA05F359410EE0A5F1A5
:1003700020050EF1200E012A03FA0EFC28BF4CF0D6
:10038000020C43FA05F3C01851EBE37101F000458C
:1003900007D54FF0000EDCF1000C7EEB00006EEB99
:1003A0000101B1F5801F1BD3B1F5001F0CD3490823
:1003B0005FEA30004FEA3C0C04F101044FEA44527A
:1003C00012F5800F80F09A80BCF1004F08BF5FEA01
:1003D000500C50F1000041EB045141EA050130BDE1
:1003E0005FEA4C0C404141EB010111F4801FA4F184
:1003F0000104E9D191F0000F04BF01460020B1FAD9
:1004000081F308BF2033A3F10B03B3F120020CDA10
:100410000C3208DD02F1140CC2F10C0201FA0CF0EE
:1004200021FA02F10CE002F11402D8BFC2F1200C53
:1004300001FA02F120FA0CFCDCBF41EA0C01904009
:10044000E41AA2BF01EB0451294330BD6FEA040452
:100450001F3C1CDA0C340EDC04F11404C4F120023D
:1004600020FA04F001FA02F340EA030021FA04F34F
:1004700045EA030130BDC4F10C04C4F1200220FAA6
:1004800002F001FA04F340EA0300294630BD21FAE4
:1004900004F0294630BD94F0000F83F4801306BFAA
:1004A00081F480110134013D4EE77FEA645C18BF9E
:1004B0007FEA655C29D094EA050F08BF90EA020F35
:1004C00005D054EA000C04BF1946104630BD91EA2D
:1004D000030F1EBF0021002030BD5FEA545C05D130
:1004E0004000494128BF41F0004130BD14F580046F
:1004F0003CBF01F5801130BD01F0004545F0FE41E3
:1005000041F470014FF0000030BD7FEA645C1ABF17
:10051000194610467FEA655C1CBF0B46024650EA4E
:10052000013406BF52EA033591EA030F41F400217A
:1005300030BD00BF90F0000F04BF0021704730B500
:100540004FF4806404F132044FF000054FF00001D5
:1005500050E700BF90F0000F04BF0021704730B596
:100560004FF4806404F1320410F0004548BF40426B
:100570004FF000013EE700BF42004FEAE2014FEAC0
:1005800031014FEA02701FBF12F07F4393F07F4F9B
:1005900081F06051704792F0000F14BF93F07F4FCD
:1005A000704730B54FF4607401F0004521F0004110
:1005B00020E700BF50EA010208BF704730B54FF096
:1005C00000050AE050EA010208BF704730B511F09B
:1005D000004502D5404261EB41014FF4806404F1D3
:1005E00032045FEA915C3FF4DCAE4FF003025FEA55
:1005F000DC0C18BF03325FEADC0C18BF033202EBDD
:10060000DC02C2F1200300FA03FC20FA02F001FA36
:1006100003FE40EA0E0021FA02F11444C1E600BFD5
:1006200070B54FF0FF0C4CF4E06C1CEA11541DBF88
:100630001CEA135594EA0C0F95EA0C0F00F0DEF853
:100640002C4481EA030621EA4C5123EA4C5350EA38
:10065000013518BF52EA033541F4801143F4801389
:1006600038D0A0FB02CE4FF00005E1FB02E506F01A
:100670000042E0FB03E54FF00006E1FB03569CF06F
:10068000000F18BF4EF0010EA4F1FF04B6F5007F75
:1006900064F5407404D25FEA4E0E6D4146EB0606E7
:1006A00042EAC62141EA55514FEAC52040EA5E5070
:1006B0004FEACE2EB4F1FD0C88BFBCF5E06F1ED81A
:1006C000BEF1004F08BF5FEA500E50F1000041EB51
:1006D000045170BD06F0004646EA010140EA0200FE
:1006E00081EA0301B4EB5C04C2BFD4EB0C0541EA20
:1006F000045170BD41F480114FF0000E013C00F335
:10070000AB8014F1360FDEBF002001F0004170BD58
:10071000C4F10004203C35DA0C341BDC04F1140471
:10072000C4F1200500FA05F320FA04F001FA05F2FD
:1007300040EA020001F0004221F0004110EBD370CA
:1007400021FA04F642EB06015EEA430E08BF20EAF6
:10075000D37070BDC4F10C04C4F1200500FA04F399
:1007600020FA05F001FA04F240EA020001F000412B
:1007700010EBD37041F100015EEA430E08BF20EA9E
:10078000D37070BDC4F1200500FA05F24EEA020EE6
:1007900020FA04F301FA05F243EA020321FA04F015
:1007A00001F0004121FA04F220EA020000EBD370CC
:1007B0005EEA430E08BF20EAD37070BD94F0000FCC
:1007C0000FD101F00046400041EB010111F4801F00
:1007D00008BF013CF7D041EA060195F0000F18BFB1
:1007E000704703F00046520043EB030313F4801FED
:1007F00008BF013DF7D043EA0603704794EA0C0FA7
:100800000CEA135518BF95EA0C0F0CD050EA4106BC
:1008100018BF52EA4306D1D181EA030101F0004139
:100820004FF0000070BD50EA410606BF1046194661
:1008300052EA430619D094EA0C0F02D150EA01366D
:1008400013D195EA0C0F05D152EA03361CBF1046AE
:1008500019460AD181EA030101F0004141F0FE414D
:1008600041F470014FF0000070BD41F0FE4141F4D1
:10087000780170BD70B54FF0FF0C4CF4E06C1CEAD1
:1008800011541DBF1CEA135594EA0C0F95EA0C0F86
:1008900000F0A7F8A4EB050481EA030E52EA033541
:1008A0004FEA013100F088804FEA03334FF0805562
:1008B00045EA131343EA12634FEA022245EA11158F
:1008C00045EA10654FEA00260EF000419D4208BF40
:1008D000964244F1FD0404F5407402D25B084FEAED
:1008E0003202B61A65EB03055B084FEA32024FF499
:1008F00080104FF4002CB6EB020E75EB030E22BFF6
:10090000B61A754640EA0C005B084FEA3202B6EBB5
:10091000020E75EB030E22BFB61A754640EA5C0064
:100920005B084FEA3202B6EB020E75EB030E22BFF4
:10093000B61A754640EA9C005B084FEA3202B6EBF5
:10094000020E75EB030E22BFB61A754640EADC00B4
:1009500055EA060E18D04FEA051545EA16754FEA16
:1009600006164FEAC30343EA52734FEAC2025FEA34
:100970001C1CC0D111F4801F0BD141EA00014FF0C3
:1009800000004FF0004CB6E711F4801F04BF014394
:100990000020B4F1FD0C88BFBCF5E06F3FF6AFAEB0
:1009A000B5EB030C04BFB6EB020C5FEA500C50F140
:1009B000000041EB045170BD0EF0004E4EEA1131C3
:1009C00014EB5C04C2BFD4EB0C0541EA045170BDCA
:1009D00041F480114FF0000E013C90E645EA060E0E
:1009E0008DE60CEA135594EA0C0F08BF95EA0C0F3C
:1009F0003FF43BAF94EA0C0F0AD150EA01347FF484
:100A000034AF95EA0C0F7FF425AF104619462CE75A
:100A100095EA0C0F06D152EA03353FF4FDAE1046BD
:100A2000194622E750EA410618BF52EA43067FF40E
:100A3000C5AE50EA41047FF40DAF52EA43057FF49E
:100A4000EBAE12E700000000000000000000000014
:100A50004A0011D212F5001211D20DD56FF478733D
:100A6000B3EB62520ED44FEAC12343F0004343EA92
:100A7000505323FA02F070474FF00000704750EADD
:100A8000013002D14FF0FF3070474FF00000704747
:100A90004FEA4102B2F1E04324BFB3F5001CDCF1A0
:100AA000FE5C0DD901F0004C4FEAC0024CEA5070D8
:100AB000B2F1004F40EB830008BF20F00100704707
:100AC00011F0804F21D113F13872BCBF01F000400A
:100AD000704741F480114FEA5252C2F11802C2F13C
:100AE000200C10FA0CF320FA02F018BF40F00100BD
:100AF0004FEAC1234FEAD32303FA0CFC40EA0C006F
:100B000023FA02F34FEA4303CCE77FEA625307D1AB
:100B100050EA01331EBF4FF0FE4040F440007047E2
:100B200001F0004040F0FE4040F40000704700BF7C
:100B300080F0004002E000BF81F0004142001FBF92
:100B40005FEA410392EA030F7FEA226C7FEA236C9B
:100B50006AD04FEA1262D2EB1363C1BFD218414090
:100B600048404140B8BF5B42192B88BF704710F026
:100B7000004F40F4000020F07F4018BF404211F0C9
:100B8000004F41F4000121F07F4118BF494292EA31
:100B9000030F3FD0A2F1010241FA03FC10EB0C005D
:100BA000C3F1200301FA03F100F0004302D54942EA
:100BB00060EB4000B0F5000F13D3B0F1807F06D397
:100BC00040084FEA310102F10102FE2A51D2B1F18F
:100BD000004F40EBC25008BF20F0010040EA030084
:100BE0007047490040EB000010F4000FA2F1010231
:100BF000EDD1B0FA80FCACF1080CB2EB0C0200FABB
:100C00000CF0AABF00EBC25052421843BCBFD04008
:100C10001843704792F0000F81F4000106BF80F482
:100C200000000132013BB5E74FEA41037FEA226C45
:100C300018BF7FEA236C21D092EA030F04D092F010
:100C4000000F08BF0846704790EA010F1CBF002044
:100C5000704712F07F4F04D1400028BF40F00040A1
:100C6000704712F100723CBF00F50000704700F0C1
:100C7000004343F0FE4040F4000070477FEA2262E8
:100C800016BF08467FEA23630146420206BF5FEAB9
:100C9000412390EA010F40F4800070474FF00003B9
:100CA00004E000BF10F0004348BF40425FEA000C80
:100CB00008BF704743F0964301464FF000001CE028
:100CC00050EA010208BF70474FF000030AE000BF7E
:100CD00050EA010208BF704711F0004302D54042BC
:100CE00061EB41015FEA010C02BF8446014600202E
:100CF00043F0B64308BFA3F18053A3F50003BCFA49
:100D00008CF2083AA3EBC25310DB01FA02FC6344F5
:100D100000FA02FCC2F12002BCF1004F20FA02F2FC
:100D200043EB020008BF20F00100704702F12002EF
:100D300001FA02FCC2F1200250EA4C0021FA02F250
:100D400043EB020008BF20EADC707047000000009F
:100D50004FF0FF0C1CEAD0521EBF1CEAD15392EA9E
:100D60000C0F93EA0C0F6FD01A4480EA010C40027A
:100D700018BF5FEA41211ED04FF0006343EA5010D4
:100D800043EA5111A0FB01310CF00040B1F5000F16
:100D90003EBF490041EAD3715B0040EA010062F1C5
:100DA0007F02FD2A1DD8B3F1004F40EBC25008BFAF
:100DB00020F00100704790F0000F0CF0004C08BFCD
:100DC00049024CEA502040EA51207F3AC2BFD2F19A
:100DD000FF0340EAC250704740F400004FF00003A8
:100DE000013A5DDC12F1190FDCBF00F000407047E2
:100DF000C2F10002410021FA02F1C2F1200200FA20
:100E000002FC5FEA310040F1000053EA4C0308BFE6
:100E100020EADC70704792F0000F00F0004C02BF37
:100E2000400010F4000F013AF9D040EA0C0093F0B2
:100E3000000F01F0004C02BF490011F4000F013B0C
:100E4000F9D041EA0C018FE70CEAD15392EA0C0F7A
:100E500018BF93EA0C0F0AD030F0004C18BF31F0E5
:100E6000004CD8D180EA010000F00040704790F0BB
:100E7000000F17BF90F0004F084691F0000F91F05F
:100E8000004F14D092EA0C0F01D142020FD193EA25
:100E90000C0F03D14B0218BF084608D180EA0100AD
:100EA00000F0004040F0FE4040F40000704740F089
:100EB000FE4040F4400070474FF0FF0C1CEAD05257
:100EC0001EBF1CEAD15392EA0C0F93EA0C0F69D0B3
:100ED000A2EB030280EA010C49024FEA402037D01E
:100EE0004FF0805343EA111143EA10130CF0004015
:100EF0008B4238BF5B0042F17D024FF4000C8B4205
:100F000024BF5B1A40EA0C00B3EB510F24BFA3EBE4
:100F1000510340EA5C00B3EB910F24BFA3EB9103B4
:100F200040EA9C00B3EBD10F24BFA3EBD10340EA0E
:100F3000DC001B0118BF5FEA1C1CE0D1FD2A3FF654
:100F400050AF8B4240EBC25008BF20F00100704709
:100F50000CF0004C4CEA50207F32C2BFD2F1FF03AC
:100F600040EAC250704740F400004FF00003013ADD
:100F700037E792F0000F00F0004C02BF400010F481
:100F8000000F013AF9D040EA0C0093F0000F01F095
:100F9000004C02BF490011F4000F013BF9D041EAB7
:100FA0000C0195E70CEAD15392EA0C0F08D14202EA
:100FB0007FF47DAF93EA0C0F7FF470AF084676E7BD
:100FC00093EA0C0F04D14B023FF44CAF08466EE796
:100FD00030F0004C18BF31F0004CCAD130F0004264
:100FE0007FF45CAF31F000437FF43CAF5FE700BFBC
:100FF0004FF0FF3C06E000BF4FF0010C02E000BFE5
:101000004FF0010C4DF804CD4FEA40024FEA410386
:101010007FEA226C18BF7FEA236C11D001B052EA3C
:10102000530C18BF90EA010F58BFB2EB030088BF02
:10103000C81738BF6FEAE17018BF40F00100704771
:101040007FEA226C02D15FEA402C05D17FEA236C53
:10105000E4D15FEA412CE1D05DF8040B704700BF9A
:10106000844608466146FFE70FB5FFF7C9FF002831
:1010700048BF10F1000F0FBD4DF808EDFFF7F4FF6A
:101080000CBF012000205DF808FB00BF4DF808ED03
:10109000FFF7EAFF34BF012000205DF808FB00BF26
:1010A0004DF808EDFFF7E0FF94BF012000205DF848
:1010B00008FB00BF4DF808EDFFF7D2FF94BF0120F9
:1010C00000205DF808FB00BF4DF808EDFFF7C8FFF2
:1010D00034BF012000205DF808FB00BF00000000C5
:1010E0004FEA4002B2F1FE4F0FD34FF09E03B3EB35
:1010F00012620DD94FEA002343F0004310F0004F75
:1011000023FA02F018BF404270474FF000007047CA
:1011100012F1610F01D1420205D110F0004008BF69
:101120006FF0004070474FF0000070470000000073
:10113000704700BF00000000000000000000000039
:1011400090F8443003F06003202B01D0002070475A
:1011500090F84530212B03D0222B09D0202BF5D13C
:10116000064B836307220023C26303640120704798
:1011700000238363C36303640120704700080020D9
:10118000EFF30983203383F30988002383F3118865
:10119000704700BF000000000000000000000000D9
:1011A000202383F31188094A094913680968073025
:1011B00020F00700C91A88429BBFC01810600020A9
:1011C0001846002383F31188704700BF781D002064
:1011D000681F002000000000000000000000000068
:1011E00010B4202383F31188037F072B0ED8DFE888
:1011F00003F0270D0D2308040D08036A9A680132D5
:101200009A6090E80C001A60026853604FF0FF3457
:10121000002281680D4B046202771B689A688A423B
:10122000FBD25A684260036000211060586081F36D
:1012300011885DF8044B7047036A00221A60E5E7E5
:10124000002383F311885DF8044B7047A816002033
:10125000FEE700BF000000000000000000000000EA
:101260002DE9F00F002302F00307C2F38006C2F35A
:10127000C105C2F341144FF00F09C2F3C3124FF07E
:10128000010A38E0D0F820B02BEA0C0C4CEA080830
:10129000C0F82080D0F804C00AFA03F82CEA080C41
:1012A0004CEA060CC0F804C04FF0030B4FEA430CA5
:1012B000D0F808800BFA0CFC6FEA0C0C0CEA08085A
:1012C00048EA0508C0F80880D0F80C800CEA080845
:1012D00048EA0408C0F80C80D0F800800CEA080C3A
:1012E0004CEA070CC0F800C049081AD07600AD00DF
:1012F000A400BF00013303F0070C4FEA8C0C11F07F
:10130000010F02FA0CF809FA0CFCEDD0072BB9D941
:10131000D0F824B02BEA0C0C4CEA0808C0F8248062
:10132000B8E7BDE8F00F70470000000000000000C3
:10133000202383F311880F4B5B6813F4006302D101
:1013400083F311887047EFF309834FF0807243F8FD
:10135000042CA3F1200282F30988074A11689269DC
:101360008968926891428CBF044A054A43F8082C68
:10137000704700BF00ED00E0A8160020A1020008A1
:10138000A4020008000000000000000000000000AF
:1013900008B50748074A43684FF48001D3F8B430D2
:1013A000516116219847BDE80840FFF7C1BF00BF53
:1013B0009C160020003C01400000000000000000DE
:1013C00008B50748074A43684FF40011D3F8AC301A
:1013D000516115219847BDE80840FFF7A9BF00BF3C
:1013E0009C160020003C01400000000000000000AE
:1013F00008B50748074A43684FF48011D3F8A43072
:10140000516114219847BDE80840FFF791BF00BF24
:101410009C160020003C014000000000000000007D
:1014200008B50748074A43684FF40021D3F89C30B9
:10143000516113219847BDE80840FFF779BF00BF0D
:101440009C160020003C014000000000000000004D
:1014500008B50748074A43684FF48021D3F8943011
:10146000516112219847BDE80840FFF761BF00BFF6
:101470009C160020003C014000000000000000001D
:1014800008B50748074A43684FF40031D3F88C3059
:10149000516111219847BDE80840FFF749BF00BFDF
:1014A0009C160020003C01400000000000000000ED
:1014B00008B50748074A43684FF48031D3F88430B1
:1014C000516110219847BDE80840FFF731BF00BFC8
:1014D0009C160020003C01400000000000000000BD
:1014E0001C4B10B55C6904F47C425A6162052AD435
:1014F000230522D4E0041AD4A10412D462040AD42D
:10150000230404D5144843680F21DB6F9847BDE8D6
:101510001040FFF70DBF104843680E215B6F9847DE
:10152000EEE70D4843680D21DB6E9847E6E70A4871
:1015300043680C215B6E9847DEE7074843680B2140
:10154000DB6D9847D6E7044843680A215B6D9847EE
:10155000CEE700BF003C01409C16002000000000C8
:10156000184B10B55C6904F478725A61A30622D452
:1015700060061AD4210612D4E2050AD4A30504D5C4
:10158000114843680921DB6C9847BDE81040FFF71C
:10159000CFBE0D48436808215B6C9847EEE70A48C8
:1015A00043680721DB6B9847E6E707484368062155
:1015B0005B6B9847DEE7044843680521DB6A984780
:1015C000D6E700BF003C01409C1600200000000050
:1015D00008B50648064A436810215B6A5161042138
:1015E0009847BDE80840FFF7A3BE00BF9C16002047
:1015F000003C01400000000000000000000000006E
:1016000008B50648064A43680821DB695161032191
:101610009847BDE80840FFF78BBE00BF9C1600202E
:10162000003C01400000000000000000000000003D
:1016300008B50648064A436804215B6951610221E6
:101640009847BDE80840FFF773BE00BF9C16002016
:10165000003C01400000000000000000000000000D
:1016600008B50648064A43680221DB68516101213A
:101670009847BDE80840FFF75BBE00BF9C160020FE
:10168000003C0140000000000000000000000000DD
:1016900008B50648064A436801215B68516100218C
:1016A0009847BDE80840FFF743BE00BF9C160020E6
:1016B000003C0140000000000000000000000000AD
:1016C0000E4A0F4B5168F0B486685F6FC568446876
:1016D000D0E90423891BC91B521843F100030135CB
:1016E000A142C5608160C0E9042305D8036899421E
:1016F00038BF0160F0BC70474160FBE7001000E0BC
:10170000A8160020000000000000000000000000FB
:101710000D4A106870B403689569136001260021B2
:10172000AC685A6006779061297700E01B689A6878
:10173000A242FBD85A686A602B60294615605D603A
:1017400070BCFEF79DBD00BFA81600200000000081
:10175000044B1A689B6992689B689A4200D870474C
:10176000FFF7D6BFA8160020000000000000000010
:10177000074B30B41A6899691468087701256360CB
:1017800015771C60104630BC9A61FEF779BD00BF2A
:10179000A81600200000000000000000000000006B
:1017A00000228168084B10B4044602771B689A68CF
:1017B0008A42FBD25A6862602360204614605C60F3
:1017C0005DF8044B704700BFA81600200000000021
:1017D000F8B50468A04207460D461FD0002602E077
:1017E0002468A7421AD0E3682B43E36015B122694D
:1017F0001342F5D06068A268416B037F0A430A2B4D
:1018000042630CD00B2BEBD1036A1A409342E7D111
:101810000662FFF7C5FF2468A742E4D1F8BD036A5A
:101820001A42DDD00662FFF7BBFFF4E700000000BC
:1018300008B5436A5A681C215207596016D59A693F
:10184000996921F07001996112F0700F02F007019F
:1018500018BF41F00801202383F31188184441EA9E
:101860000241FFF7B5FF002383F3118808BD00BFD5
:1018700008B50348FFF7DCFFBDE80840FFF758BD97
:10188000800D0020000000000000000000000000AB
:1018900008B50348FFF7CCFFBDE80840FFF748BD97
:1018A000580D0020000000000000000000000000B3
:1018B00038B5174B04469869202383F311882568AF
:1018C000E3688363AC421CD0C16B4BB11A6893428E
:1018D00003D09268914238BF1146DB68002BF5D1E6
:1018E0002B68AA6B8160236028465C60E260A5607B
:1018F000AC63FFF755FFFFF72BFF002383F311883D
:1019000038BD0023A360002383F3118838BD00BFD6
:10191000A8160020000000000000000000000000E9
:1019200070B5304B054680689C69002855D0A26888
:101930008368934210D2037F8260072B0CD8DFE8C4
:1019400003F0040B0B0B0B381F3890E80C001A60E7
:1019500002685360FFF724FF2B4603E09968A268F2
:10196000914202D31B689D42F8D15A68626023609D
:1019700014605C6025620620BDE87040FFF7F8BE89
:1019800090E80A001960066A01684B60334602E07D
:101990009968914202D31B689E42F9D15A6842600D
:1019A000036010605860B068A26883689342C2D335
:1019B000D2E790E80A001960066A01684B60334676
:1019C00002E09968914202D31B689E42F9D15A689D
:1019D0004260036010605860BEE7A36BEB60AC60D0
:1019E000A56370BDA81600200000000000000000E4
:1019F0002DE9F0412023044683F31188857F013DC2
:101A0000EDB28577002282F3118815B9027F0F2A83
:101A100001D0BDE8F081427F02F00302012A03D029
:101A2000022A23D0BDE8F081426901691161016990
:101A30004A6150F8082CA0F1080602F1080702F1EB
:101A4000100883F311884046FFF76AFF85F3118879
:101A50003B469F4204D09E4202D81B689F42FAD167
:101A60001A688AB196420FD31346F2E741690269B8
:101A70000A610069226C416183F311881368236055
:101A8000146085F31188C4E754F8041C44F8082C4A
:101A90001E6001F1080254F8085CB018A8420AD090
:101AA0005A6802F1080119448E420DD04046BDE843
:101AB000F041FFF7FDBE4068B25844F8082C0A1800
:101AC000083244F8042CEBE754F8040C54F8081CD2
:101AD0001960024408325A60E8E700BF00000000C5
:101AE00083680133002B836000DD704703681A6848
:101AF00002600021506018461962FFF751BE00BF16
:101B000038B50368984204460D4609D01A68226029
:101B1000184654601D62FFF743FE23689C42F5D1CE
:101B200038BD00BF00000000000000000000000001
:101B30002DE98048A949AA4A8B69076D9A6185B049
:101B4000202181F3118800F16002BA460392074612
:101B50003B78012B05D0FB6D8BB9DAF81430DB062E
:101B60000DD4DAF818209D4C42F01002A369CAF88F
:101B70001820039A3B6603201A62FFF7F9FD002341
:101B800083F3118898464FF0200BDAF8143013F0E5
:101B9000100323D03E6D346A04F4F013B3F5802FA4
:101BA0002FD0B3F5402FF0D104F00F0307EB8303E0
:101BB000C4F30A14DA68E31C9B08106AE5D006F542
:101BC00080560222316812B140F8041B013A013BF1
:101BD000F8D1DAF8143013F01003DBD10121FA6DDB
:101BE00001FA08F1114202916BD108F101087B6DF5
:101BF0009B685FFA88F89845C5D9202383F311883C
:101C0000A6E704F00F0507EB8505C4F30A14EB689B
:101C100099690B78E3B90A1D92E80C400332D21A95
:101C2000E31C9B084FEA920209D006F58056F44661
:101C3000306812B14CF8040B013A013BF8D10EEBBD
:101C40000400C860EB689B699A6814449C609CE738
:101C5000C86844B3426906F58056A646BEF1030F34
:101C600007D903699A4204D3C2684261BEF1030FE7
:101C7000F7D8D6F800C0002302F101092CFA03F1CD
:101C8000C0F81490117002694169914224BFC26882
:101C90004261BEF1010E06D0182B02D00833426912
:101CA000EAE74269DAE78BF31188836823448360AB
:101CB0000021FFF725FFFFF74BFD002080F311887F
:101CC000C0E7202282F31188DAF80810FA6D029C2E
:101CD00021F0010122EA0402CAF80810FA6583F330
:101CE000118807EB880BDBF80C10486983684268A1
:101CF000934280F0AD803D6D098A4FEA481905EBAB
:101D00000904D21AD4F818398A4234BF16460E464E
:101D10009BB2B6EB830F08F1010898BF01972AD850
:101D20000378002B3CD1F31CC4689B0805EB0835F5
:101D300018BF224604D052F8041B2960013BFAD197
:101D40003444C460DBF80C1048698368426833444B
:101D50009A42836079D9019C098A256D05EB0904B3
:101D6000D61AD4F818398E4228BF0E469BB2B6EB6D
:101D7000830FD5D9019F0022202383F31188DAF83D
:101D8000083043F00103CAF808302AB9DAF83438C9
:101D9000029A1343CAF83438002383F3118826E7E4
:101DA00005EB0835C06806B3D0F810C0324691087C
:101DB0002AD1816900231F464C1C84610978A445FF
:101DC00001FA03F147EA01079CBFC1688161013A4A
:101DD00008D0182B06D008338169EDE7A81600203B
:101DE000706C00082F60002AE1D1202383F3118852
:101DF0008368334483600021FFF782FEFFF7A8FC6D
:101E0000002080F311889DE78769BCEB070348BF7A
:101E100003339B10994238BF0B464FEA830ECEEB3B
:101E2000020233B1394651F8044B2C60013BFAD120
:101E300077446745876104D3C3688361002AB6D1BC
:101E4000D3E7002AD1D03946B4E7019F012293E7B6
:101E500008F10108FAE700BF0000000000000000E0
:101E600038B5436A1D69AA0704460ED1EB060BD5A7
:101E7000636A10211961202383F31188E018FFF7AA
:101E8000A7FC002383F3118838BD5A6922F01002A1
:101E90005A61202383F3118800211030FFF730FEB0
:101EA00004F118000221FFF793FC002383F311884B
:101EB000DCE700BF000000000000000000000000A0
:101EC00008B50348FFF7CCFFBDE80840FFF730BA7C
:101ED000800D002000000000000000000000000055
:101EE00008B50348FFF7BCFFBDE80840FFF720BA7C
:101EF000580D00200000000000000000000000005D
:101F000038B5436ADD68AA0704460ED1EB060BD547
:101F1000636A1021D960202383F31188E018FFF74A
:101F200057FC002383F3118838BD5A6922F002025E
:101F30005A61202383F3118800211030FFF7E0FD60
:101F400004F118000121FFF743FC002383F31188FB
:101F5000DCE700BF000000000000000000000000FF
:101F600008B50348FFF7CCFFBDE80840FFF7E0B92C
:101F7000800D0020000000000000000000000000B4
:101F800008B50348FFF7BCFFBDE80840FFF7D0B92C
:101F9000580D0020000000000000000000000000BC
:101FA000436A0A4910B520220446996082F31188D9
:101FB00000210830FFF7A4FD04F11C000121FFF708
:101FC00007FC002383F3118810BD00BF010101004D
:101FD00008B50348FFF7E4FFBDE80840FFF7A8B9DC
:101FE000800D002000000000000000000000000044
:101FF00008B50348FFF7D4FFBDE80840FFF798B9DC
:10200000580D00200000000000000000000000004B
:1020100038B50E4B9C69636A206204F124059D4229
:1020200007D01A6862621846FFF7BAFB636AAB42D0
:10203000F7D1637F9B0704D1636922691A61226922
:1020400053610F20BDE83840FFF792BBA81600206F
:1020500003494A684B689B1A9842FBD8704700BFF7
:10206000001000E000000000000000000000000080
:10207000FEE700BF000000000000000000000000BC
:1020800010B5202383F31188134B186818B1002270
:102090001A6003F07DF9002383F311880F4B4FF48E
:1020A00000421A83202383F311880D4CE3683BB16F
:1020B000204601F0B5FCE36813B1204601F0B0FC06
:1020C0000748084A4FF4FA61002301F049FE002353
:1020D00083F3118810BD00BF10240020000C0240C3
:1020E000240D002031520008000000000000000014
:1020F000024B00221A60FFF7C3BF00BF1424002068
:10210000024B01221A60FFF7BBBF00BF142400205E
:10211000024B02221A60FFF7B3BF00BF1424002055
:10212000024B03221A60FFF7ABBF00BF142400204C
:10213000F8B5124E124D134C134B3160012702219A
:102140001A8006462F602160202383F311880F4BED
:10215000186818B100221A6003F01AF9002383F3FB
:1021600011880B4D4FF47A6001F062FE0FCD3446BA
:102170000FC42B6823603046F8BD00BF1008002054
:10218000000D0020080800200C0D0020100D00207C
:10219000440D0020000000000000000000000000CE
:1021A0002DE9F04FDFF888B15E4CDBF818200168AC
:1021B000946191B007229DF82C3062F303038DF8EF
:1021C0002C304FF0200A8AF3118810AB8A6943F84B
:1021D000282DDBF81820079201244FF0FF30002251
:1021E00008940A908B61099282F31188DBF8183009
:1021F0005B7F5C0700F192804B4C35E01A699107D8
:102200003CD1002383F311884FF47A7001F010FE63
:10221000049D9DF83030ADF82E50059DCDF83C80E2
:1022200065F30303039D414E65F3041369F34513FE
:10223000029D0E958DF830300BAF0FCF0FC635468F
:102240004FF47A7045F81089019501F0F1FD0DF118
:102250002C0CDBF818503F683760BCE80F006F7F2C
:10226000019D7F070FC559D48AF311882E48037842
:10227000042BC6D0636ADA689007BFD0DA68960785
:1022800027D0D3F8B011D3F8B421D3F8B851D3F88C
:10229000BC81C3F80CA0D8680295800703D15869A7
:1022A00040F002005861C1F34005C1F38009039575
:1022B000B9F1000F2AD00D9BC90861F31C030D93DF
:1022C000130A02F00F05120C8DF82C3005950492BC
:1022D00097E71A69920794D0D3F8C011D3F8C421B4
:1022E000D3F8C851D3F8CC81C3F810A0186902956F
:1022F0008507D8D15869C1F3400540F01000C1F3FB
:10230000800958610395B9F1000FD4D1BDF834307C
:10231000490D61F30A03ADF83430D1E711B0BDE8DF
:10232000F08F00BF806C0008580D0020440D002085
:10233000A8160020000000000000000000000000BF
:1023400008B5134B134A9B69134D9A614FF480747F
:1023500012480221FF2203F083FA00214FF4167283
:102360002C830F4803F07CFA4FF47A7001F060FD83
:102370000A480221002203F073FA00210A460848A5
:1023800003F06EFA6C834FF47A7001F051FDDDE7D3
:10239000A81600208C6C000800100240EC1B0020E6
:1023A000D01B002000000000000000000000000022
:1023B00010B5002982B0044604DD104903F040F84E
:1023C00002B010BD0E4903F03BF80E4B18680368CD
:1023D00069465B6806229847684604F0A1FB0A4BF1
:1023E0000A491880024692B2204603F029F842F2C8
:1023F000107001F01DFD02B010BD00BF906C000810
:10240000986C0008C4080020140D0020A46C00087B
:1024100010B5002982B004DD144903F011F802B0B0
:1024200010BD134C134903F00BF82068036801A991
:102430005B680522984701A804F072FBFEF732FCA6
:102440000D4A0E490346136020681A461C4602F0E6
:10245000F7FF0B4B0B4A19881068224601F050FF1A
:102460004FF47A7001F0E4FC02B010BDB46C0008C7
:10247000C4080020BC6C000814080020CC6C0008C4
:10248000140D00200C0800200000000000000000D7
:10249000002910B5044604DD1A49BDE8104002F0D9
:1024A000CFBF012003F0FCF817490246204602F096
:1024B000C7FF022003F0F4F814490246204602F058
:1024C000BFFF032003F0ECF811490246204602F05A
:1024D000B7FF104B10491A68204602F0B1FF0F4BAE
:1024E0000F491A78204602F0ABFF0E4B0E491A68CE
:1024F000204602F0A5FF42F21070BDE8104001F046
:1025000097BC00BFD86C0008E06C0008F06C0008B5
:10251000006D000888260020106D0008702600203D
:102520001C6D00084C0800202C6D00080000000005
:102530002DE98048DFF8F480364CD8F81830364A58
:10254000DFF8ECB0354EDFF8ECA0DFF8EC909A61E4
:1025500085B0254641F2883001F06AFCD9F80000C8
:10256000DAF80010BBF80020019B37688DF80920CD
:102570004FEA801E4EEAC14E306831684EF4BB3ED1
:10258000120A6EF31C038DF80820254A01933F0EB2
:1025900033688DF80B70000C090A8DF80E308DF839
:1025A0000C008DF80D101768202383F31188237811
:1025B0001C48042B4FF0640103D06B6A9A685201E7
:1025C00014D401F045FC0028F1D0002383F31188D6
:1025D000202383F31188144AD8F81830136003209D
:1025E000FFF7C6F8002383F31188B3E701A807C8F3
:1025F000C00007F00F0740F00500C3F88471C3F86E
:102600008811C3F88C210021C3F8800181F311885F
:10261000DEE700BF580D0020346D0008380D0020A3
:1026200008080020600D0020100D0020A8160020D2
:102630000C0D002010080020000D002000000000FC
:102640002DE9F041414E07463070202383F3118875
:1026500096F80080404601F01BFA0825552404F046
:10266000010001F045FA013D4FEA5404F7D1384624
:1026700001F08EFA0824442505F0010001F038FA33
:10268000013C4FEA5505F7D12046414603F0B0F82A
:1026900008F1FF33012B4CD0022B46D0002B3DD04C
:1026A00041F64C5001F0C4FB96F80080404601F022
:1026B000EFF90825552404F0010001F019FA013D55
:1026C0004FEA5404F7D1384601F062FA0824BE25D7
:1026D00005F0010001F00CFA013C4FEA5505F7D175
:1026E000404603F05DF801F09BFA054601F098FAC8
:1026F00084F3118805B928B345EA002080B2FDF7BC
:1027000029FF0022124BFDF78BFFFEF7A1F980B2E3
:10271000FA2812D8FEF7C2FABDE8F08103F180432F
:1027200003F5043304221A83BAE70A4B10221A83F2
:10273000B6E7084B08221A83B2E7307801F088FA2E
:10274000BDE8F0810020BDE8F08100BF3C0D002015
:102750000000B03F00100240000000000000000038
:102760002DE980485E4B5F4A9B695F4FDFF890A17F
:102770009A6183B00120FFF763FFFEF7B1FC0346C7
:102780004FF4FA703B6001F053FB0220FFF758FF53
:10279000FEF7A6FC03464FF4FA707B6001F048FB9D
:1027A0000320FFF74DFFFEF79BFC03464FF4FA7042
:1027B000BB6001F03DFB00252C464C4B4C4857F8C4
:1027C00024B046595859FEF76DFA814649463046BD
:1027D000FEF7B2F980465846FEF764FA4146FEF726
:1027E00055FC002838D000264AF805609AE84200D7
:1027F0004048DAF8082003688E42B8BF0E46964279
:10280000B8BF16469E421BD01E2E19DD002B5FD18D
:102810001946C8223848019303F022F841F2883063
:1028200001F006FB019B34481946324B32461E60CC
:1028300003F016F80134032C05F10405BDD199E726
:10284000002BF7D0092EF5DC00212A4E2A483160F2
:102850000A4603F005F8EDE7234B53F82400FEF792
:1028600021FA01464046FEF711FC18B31E4B53F8FF
:102870002400FEF717FA01463046FEF725FCC8B1E2
:10288000194B53F82400FEF70DFA01463046FEF7C7
:1028900053F94946FEF710FB01464FF07E50FEF714
:1028A0004BF91649FEF754FAFEF71AFC14384AF8A9
:1028B00005009BE757F82400FEF7F4F9014630467F
:1028C000FEF7EEFB002891D0FF234AF805308DE794
:1028D000084B09481E603246002102F0C1FFA9E7FB
:1028E000A8160020406D00088C260020A8110020AA
:1028F00090160020040D0020EC1B002000007F43F8
:10290000180D002000000000000000000000000082
:1029100008B50E4D0E4E202484F311880320B369B0
:102920002B60FEF725FF002383F31188094804F08C
:102930007FF8084902464FF0FF33074801F098FB43
:1029400042F2107001F074FAE6E700BF080D0020B3
:10295000A8160020400D0020981300200000000061
:1029600010B5084C204604F063F8214602464FF0AB
:10297000FF33054801F07CFB4CF25030BDE81040BD
:1029800001F056BA1808002098130020000000003B
:1029900010B50649044602F053FDFFF7E1FF20465B
:1029A0000349BDE8104002F04BBD00BF486D000870
:1029B000586D00080000000000000000000000004A
:1029C0000378012B2DE9F00F68D000214568654B95
:1029D0000A4601274FF00F0C34E00F2A15D822F0D9
:1029E000030404F1804404F59C3402F00306D4F897
:1029F0000880B6000CFA06FAC0F3031928EA0A08A0
:102A000009FA06F648EA0606A660C40735D59E68A8
:102A100007FA02F426439E60E64310F0020FD868DE
:102A200014BF20433040D8606818406878B31868F5
:102A300004431C60586806405E600132172A01F1A9
:102A4000080117D068584607C7D41E6807FA02F471
:102A5000E04306401E605E6806405E609E68064079
:102A60009E60DE6801323040172AD86001F108010B
:102A70005C61E7D1BDE8F00F7047D3F8088007FA32
:102A800002F4E64306EA0808C3F80880C5E7586878
:102A900004435C60186806401E60CEE7324B60223B
:102AA0004FF0400C802783F806234FF48075C3F85D
:102AB00080C14FF40074C3F800C04FF4806183F804
:102AC0000723F026C3F880714FF4000B1F604FF00E
:102AD000020A4FF080494FF480584FF0040C082749
:102AE00083F80823C3F880511D6083F80923C3F8D5
:102AF00080411C6083F80A23C3F88011196083F8B1
:102B00001723C3F880B1C3F800B083F82823C3F8B3
:102B100084515D6083F80123C3F880A1C3F800A04D
:102B200083F82963C3F884415C6083F82A23C3F8DF
:102B30008411596083F83E23C3F88491C3F804904C
:102B400083F84C23C3F88881C3F8088083F80263B4
:102B5000C3F880C1C3F800C083F80363C3F8807171
:102B60001F6032E7003C014000E100E0000000008F
:102B700000B587B00A46014601A8FFF7D9FA9DF8CB
:102B800014309DF813109DF816209DF815001B04B5
:102B900043EA0163134343EA0020FEF7A1FA07B0BA
:102BA0005DF804FB000000000000000000000000D1
:102BB0002DE9F04F00298FB006465CDC314D6521D0
:102BC00029600224304B89B21A8809A81F46FFF7F2
:102BD000AFFA9DF836E0CDF810E0013C9DF83010DA
:102BE0009DF831209DF832809DF833309DF834C037
:102BF0009DF835009DF82FE09DF82EB09DF82D90A2
:102C00009DF82CA001D02968DCE70C460690398895
:102C10002888CDF81CE00293CDF80CC00592FFF790
:102C2000A7FF1A490246304602F00AFCDDF80CC044
:102C3000029BDDF814E006994FEA0C4242EA036277
:102C4000049B1A43079B4FEA0B4B4BEA036B4FEA7B
:102C50000E2342EA01224BEA0A0A43EA04430092A5
:102C600043EA08034AEA09223046094902F0E8FB30
:102C70000FB0BDE8F08F07490FB0BDE8F04F02F08C
:102C8000DFBB00BF0C080020140D0020606D0008A1
:102C90006C6D0008D86C0008000000000000000007
:102CA0002DE9F047794B04689B69794AD0F8048094
:102CB00078499A6198B0204602F06AFC08AE0DF19E
:102CC0005F072046744902F063FC354623682046BE
:102CD0005B680DF107010122984768B39DF8071062
:102CE000042925D0082910D07F290ED00D2934D0F1
:102CF0001F29EBD9BD42E9D2236820469B6898473B
:102D00009DF807302B700135E0E7B5422046DDD055
:102D100023689B689847236820469B682021984732
:102D200023689DF807109B682046013D9847CDE732
:102D300020465A4902F02CFC2046594902F028FC52
:102D4000202383F3118800215648FEF741FD00201F
:102D5000FFF75EF918B0BDE8F0875349204602F04E
:102D600017FC002302A92B7030461D4602F048FBD9
:102D700002A9824600200DF1080902F041FB50B182
:102D8000042D1DD049F8040F02A90020013502F0DE
:102D900037FB0028F4D118AA02EB850343F8540C42
:102DA000BAF1000F8DD05046404903F019FE70B9BA
:102DB000002DC5D020463E493C4A02F0E9FB80E7A1
:102DC00020463C4902F0E4FB0023079379E7504694
:102DD000394903F005FE30B92046CDB13449364AB1
:102DE00002F0D6FB6DE7354B1868994620B932E002
:102DF00059F8080F00282ED0514603F0F1FD0028A5
:102E0000F6D1D9F804302946204603AA984758E756
:102E10002B4902F0BDFB294B1A681D463AB12046EA
:102E2000284902F0B5FB55F8082F002AF7D1B8F170
:102E3000000F0BD0D8F8002042B14546204621496A
:102E400002F0A6FB55F8082F002AF7D120461649B4
:102E500002F09EFB35E7B8F1000F0DD0D8F8000066
:102E600050B1C14602E059F8080F28B1514603F0AD
:102E7000B7FD0028F7D1C4E752462046124902F0B8
:102E800087FB2046114902F083FB1AE7A8160020B1
:102E9000006E0008086E0008206E0008286E00080A
:102EA000886E00087C1D002064720008446E0008D3
:102EB0004C6E00082C6E0008586E00083408002084
:102EC000606E0008786E00087C6E0008806E000856
:102ED000CC4BCD481A694FF0FF3100222DE98048D4
:102EE00019611A615C6959615A611C6A64F0805405
:102EF0001C621A625C6A59625A62196C41F0805114
:102F00001964016841F480710160196F01F4407126
:102F1000B1F5007F8BB003D04FF4803119671A6789
:102F2000B94BB84A5968B948DFF818A3DFF81893C5
:102F3000B74CDFF81883DFF818C3B64DDFF814E399
:102F4000B54FB64EDFF810B321F400715960136B22
:102F50006FEA53236FEA43231363116D6FEA512124
:102F60006FEA4121002311656FF4A841436081603D
:102F7000C0F80CA04FF6FF71DFF8E0A241610462D7
:102F8000C0F824A0A64C04604FF4107AC9F804A03D
:102F90004FF0FF304FF0806AA24CC9F80800C9F822
:102FA0000C40C9F814104024C9F820A0DFF8B0A2E2
:102FB000C9F82440C9F800A009F1A25909F544391B
:102FC00009F5AA79C8F80430C8F80800C8F80C90C8
:102FD0004FF0C049C8F81410C8F82090DFF8849268
:102FE000C8F82490DFF88092C8F80090DFF87C825F
:102FF000CCF80430CCF80800CCF80C8040F6FF7810
:10300000CCF81480DFF86882CCF82030CCF824307B
:10301000CCF80080CEF80430CEF80800CEF80C30A2
:10302000CEF81410CEF82030CEF82430CEF8004080
:103030007B60B860FB6079613B627B623B60736080
:10304000B060F36071613362736233606B60A8607B
:10305000EB6069612B626B622B60C5F80434C5F8C4
:103060000804C5F80C34C5F81414C5F82034C5F8A4
:103070002434C5F80034106CDFF8F8A16A49CBF8A5
:1030800004304FF0010C40F000708BF800C08AF85B
:1030900000C01064D1F80002CAF80430000C00042B
:1030A00040F4606044F2010540EA0C00C1F80002FF
:1030B000C1F84032C1F84432C1F8B032C1F8B4327C
:1030C000C1F80432C1F81432C1F80C52C1F81C52D4
:1030D000D1F800E2554CCBF82410A6F5D836CAF842
:1030E00024600BF118070BF11C060BF120050AF107
:1030F00018000AF11C092EF0010E0AF12008CBF885
:103100001870CBF81C600BF108070BF11006CBF818
:103110002050CAF818000AF108050AF11000CAF890
:103120001C90CAF82080CBF80870CBF80C70CBF854
:103130001060CBF81460CAF80850CAF80C50CAF8EE
:103140001000CAF81400C1F800E2D2F84080384DEF
:10315000384E84F808C0204628F00078C2F8408035
:1031600040F8045B344FDFF810E1344963614FF0FD
:10317000200804F194020425C4F838802264DFF8A2
:10318000FC80606004F10C0204F15400DFF8F09060
:10319000C6F818E004F1740E35743D74C7F8188051
:1031A00004F13005E2602261A06160622062C4F82F
:1031B0001CE0C4F83CE0C4F848E0C4F844E0DFF8A0
:1031C000C4801F4ADFF8C0E0A3624FF0A040C9F8F6
:1031D00004307360F3607B60FB602563E46289F810
:1031E00000C086F800C087F800C065634B60CB6103
:1031F0008B620B62CB624B620B630B814B810B6664
:1032000044E000BF0038024000700040000002406F
:1032100000005655001C02400014024000180240F5
:1032200000AAA02A154551550064004068130020EB
:10323000C06E0008D01B0020EC1B0020B81100203D
:1032400000480040540001400004024000080240D1
:10325000000C024000100240580D002000AA0A0095
:10326000802008000006060001802002555055000D
:1032700000010055800D00200000014000080040C2
:103280009C16002081520008C06D00084B6601F1B9
:10329000680581F800C00865C1F854E0C4F84C80A6
:1032A0002465C4F89420AC31FF2305F8013B8D421E
:1032B000FBD3C44B552103F5827203F8011B9342E3
:1032C000FBD3C149C04D0A6CC048C14BC149DFF8AE
:1032D00070C3DFF87093DFF870E342F001022A64F4
:1032E00085685B604FF0804245F00108C0F80880B7
:1032F00042F2CF0090624FF0FF30D06200250120F3
:1033000095614FF080585563D560556050611060ED
:103310006FF07F028CF81C23CCF88081CCF8008001
:103320008D60C8689D604FF6FF02024042EA0909BD
:10333000C1F80C90DEF80C20DFF810831B6142F01E
:103340008072CEF80C20D8F800205B6142F00102B8
:10335000C8F800204FF0100E03F11C084FF0FF32A8
:103360004FF0200981F81FE00DEB0E005A6281F842
:103370002290C3F81C80C3F820804FF000094FF062
:1033800000089D621B605D670492CDE90889029385
:10339000CDF804C005950695079502F029F804A814
:1033A000FEF78EF9029B8C4A8C49DFF8A4E2D3F831
:1033B0001480DFF8A092C3F844804FF0010083F836
:1033C0004E0021F0070102F11000039110610699EF
:1033D000506140205967986303F13001D8662EF0A0
:1033E000070E03F15400C9F800E083F84D509D66C4
:1033F0005D669D641B649561DFF85CE2C8F810109F
:10340000586503F15800596199614FF001087449FA
:103410009865D86503989560D56083F84C801160F5
:10342000CEF800004FF0020985F3118862B69A6960
:103430006C49916103F178000122D8216A4B00F0B8
:1034400087FF6A4B83612A4601216948FDF708FF1F
:1034500049462A466648FDF703FF2A466448042188
:10346000FDF7FEFE2A4662480821FDF7F9FE80219D
:1034700001226048FDF7F4FE5F484FF480514FF49D
:103480008172FDF7EDFE5C484FF400514FF48172FC
:10349000FDF7E6FE58484FF480414FF48172FDF786
:1034A000DFFE54484FF400718222FDF7D9FE20213F
:1034B00081F31188514B7B6051484FF48073BB609E
:1034C000029302F015FEFD6087F8009085F31188E5
:1034D000202282F311884B4A029B4B48B3607260F2
:1034E00002F006FEF56086F8009085F3118802F080
:1034F000AFF900F07DFF00F013FC202383F3118867
:10350000424B43488BF800900326CBF8043002F07E
:103510007FFD8BF8006085F311884FF0200888F359
:1035200011883C4B3C488AF80090CAF8043002F0FD
:103530006FFD8AF8006085F311882F48374EDFF859
:103540001CA1012140F29A42FDF78AFE49462A4811
:1035500040F29A42FDF784FE4021314840F29A42FF
:10356000FDF77EFE41462E4840F29A42FDF778FE76
:103570002C4B2D484FF4E471432200F0E9FE2B4B15
:103580002B484FF4E471472200F0E2FEDFF8D0E070
:10359000284B2948CEF800A00A274A224FF4A471EC
:1035A000CEF804A0CEF808A037607760B76000F0CE
:1035B000CFFE40F253416520FFF7DAFA1F4B186047
:1035C00050E000BF6412002000380240002004E0F8
:1035D000A816002000ED00E0801D00200000022061
:1035E000A1110008E06D000851120008946E000857
:1035F0000008024000100240000C0240806D0008EC
:10360000EC1B0020F06E0008D01B0020E06E0008CC
:10361000580D0020B06E0008800D0020A811002079
:103620000004024031250008B8200020A121000834
:10363000A01D002061270008701F00204C080020FA
:1036400000E100E00003FA05F0ED00E0001000E00A
:10365000B3260020781D0020681F002000001042C3
:103660009016002042F2107000F0E2FB504B5148DF
:103670004FF424714A2200F06BFE88F311884E4803
:103680004E4B4360FFF79CF94B4880F8009085F360
:1036900011884B4B4B484FF4A4714A2200F058FE5E
:1036A00049484FF4806140F28232FDF7D9FD464827
:1036B0004FF4006140F28232FDF7D2FD88F31188A9
:1036C000237ADDF804C0012B59D0D4F894303F4A56
:1036D000934266D002F58062934262D03C4A3D48F4
:1036E0001168B0FBF1F199609188D588108941F497
:1036F000045242F02C0245F0400540F0010091B226
:10370000ADB280B200221D6102265861D9601A60F4
:1037100019685B68267282F311882F4C2F4D304B4D
:10372000A26104F11C0E4FF4807C04F110073246B4
:103730004FF4A471C4F824C0C4F81CE0C4F820E01D
:103740002848276105F5806867612560E560A56008
:10375000C4F8048000F0FCFD3246234B23484FF4AC
:10376000A47100F0F5FD2248224B4FF4A4714A22C7
:1037700000F0EEFD42F2107000F05AFBFAE71E492D
:103780000A6CC02342F480220A648CF8273380221A
:10379000CCF88421D4F89430CCF804200B4A93421E
:1037A00098D10B4A15481168B0FBF1F199609BE77D
:1037B00041620008F81700209C160020306F0008B6
:1037C000015D00084815002000040240001001407F
:1037D0002808002080DE8002081C0020A80D0020A0
:1037E000815C0008301C002011290008881A002084
:1037F00000140020412300080038024000BD0105EC
:103800002C492D4B4FF080504FF4404208641A6011
:103810000B6843F001030B600B68264A9807FBD541
:10382000936823F0030393609368936011468B6859
:10383000204A13F00C03FAD1116801F0F90111606C
:103840009360136843F480331360136819499B0332
:10385000FBD54B6F43F001034B674B6F154A98073D
:10386000FBD5164B53601368134943F08073136004
:103870004B685A04FCD50F490B680E4A9B01FBD5D7
:103880000F4B1049916040F205711960936843F045
:103890000203936011468B68064A03F00C03082B61
:1038A000F9D1536C43F480435364536E43F4804323
:1038B00053667047003802400070004008544007CB
:1038C000003C024000948838000000000000000026
:1038D000202383F31188FEF79BBB00BF000000008C
:1038E000FDF716BF0000000000000000000000000F
:1038F000FEE700BF00000000000000000000000024
:10390000704700BF00000000000000000000000041
:10391000704700BF00000000000000000000000031
:1039200010B5164C0020217801F062FF202383F3AC
:103930001188542300BF013BFCD183F31188207808
:1039400001F02EFF202383F3118840F2762300BF7D
:10395000013BFCD183F31188207801F0F1FE0030A7
:103960004FF0200318BF012083F3118840F23C631D
:1039700000BF013BFCD183F3118810BD3C0D00203A
:103980002DE9F0414FF080452B699B0703D4BDE83A
:10399000F041FDF7CDBC00272F61202686F311886A
:1039A0001D4C6A6AE369A06A9968C0EB020C8C45F9
:1039B00038BF04F11C071DD3B84604F11C071A6870
:1039C000D3F80CC00144BA42A1625760E261C3F867
:1039D0000C8008BFC5F80C8088F311881869E0478F
:1039E00086F31188E3696A6AA06A9968C0EB020CE1
:1039F0006145E4D9BB4208D00144891A012998BF26
:103A000002214FF080430A445A63002383F3118854
:103A1000BDE8F041FDF78CBCA816002000000000B6
:103A20001A4AD369834210B410D0416803680B600E
:103A300003681C32002493425960C46003D081683B
:103A40009A680A449A605DF8044B704710461968FA
:103A500040F81C1F002481424860DC6011D08C6853
:103A60009B68906A23444FF080428B60516A081A29
:103A70008342E8D91B1A012B98BF02230B445363DE
:103A8000E1E74FF08043DC60DDE700BFA8160020CF
:103A900038B5C4B205462146002001F0A9FE202316
:103AA00083F3118844F6C06300BF013BFCD183F36C
:103AB0001188204601F074FE202383F3118840F61C
:103AC000D81400BF013CFCD184F31188284601F0D2
:103AD00037FE58B9202383F3118844F2E84300BF2E
:103AE000013BFCD183F31188012038BD204638BD4D
:103AF00038B5244C05462178002001F079FE2023BA
:103B000083F311887E2300BF013BFCD183F311882E
:103B1000C5B1207801F044FE202383F3118840F6DC
:103B2000D81200BF013AFCD182F311882078154CDD
:103B3000431E012B1DD0022B12D043B1BDE83840EB
:103B400001F02EBE2846217801F052FEE4E70E482F
:103B50000421FDF785FB2078BDE8384001F020BE48
:103B600009481021FDF77CFB2078BDE8384001F0C2
:103B700017BE05480821FDF773FB2078BDE83840E3
:103B800001F00EBE3C0D00200010024000000000BD
:103B90002DE9F047DFF870A0DFF87090DFF8708053
:103BA0000746002606E0032F22D0012F14D001364D
:103BB000082E0FD0022FF6D116F80A50082405F06F
:103BC0000100FFF795FF013C4FEA5505F7D101369B
:103BD000082EEFD1BDE8F08716F80850082405F04C
:103BE0000100FFF785FF013C4FEA5505F7D1DEE7FD
:103BF00016F80950082405F00100FFF779FF013C91
:103C00004FEA5505F7D1D2E780220020D8230020C3
:103C1000D023002000000000000000000000000091
:103C200038B507250024FFF77BFE08B144F0800477
:103C3000013D4FEA5404F6D1FFF772FE10B164F073
:103C40007F04E4B2204638BD000000000000000000
:103C50000138012838B539D002281CD000B138BD50
:103C6000284B1878FFF714FF0825332404F00100CF
:103C7000FFF73EFF013D4FEA5404F7D10120224CEB
:103C800001F08EFD04F10805FFF7CAFF04F8010FEB
:103C9000AC42F9D138BD1B4B1878FFF7F9FE082567
:103CA000332404F00100FFF723FF013D4FEA5404E1
:103CB000F7D10320154C01F073FD04F10805FFF75F
:103CC000AFFF04F8010FAC42F9D138BD0D4B1878A5
:103CD000FFF7DEFE0825332404F00100FFF708FF9C
:103CE000013D4FEA5404F7D10220094C01F058FD80
:103CF00004F10805FFF794FF04F8010FAC42F9D175
:103D000038BD00BF3C0D0020CF230020D72300206A
:103D10007F220020000000000000000000000000E2
:103D200008B5012001F024FD022001F021FD03204F
:103D300001F01EFD0120FFF7ABFE0220FFF7A8FEF9
:103D40000320FFF7A5FE0120FFF782FF0220FFF707
:103D50007FFF0320BDE80840FFF77ABF00000000A6
:103D6000F0B41C4D2E464FF0804756F81C4F0361AF
:103D7000012998BF0221B442C2607B6A1BD0AE6A9F
:103D8000A26819448B1B934238BF7963934204D9CC
:103D900024689B1AA2689A42FAD36268426004605F
:103DA000106060608360A2684FF0FF31D31AA36097
:103DB0006962F0BC704701EB030C00260222AB6283
:103DC000E8612862046044608160C7F834C03E61E5
:103DD000FA60EEE7A81600200000000000000000D6
:103DE00030B54B1C87B0054611D00C4C0C4AA3696A
:103DF00001A8FFF7B5FF2846FDF7BAFC049B13B1F5
:103E000001A8FFF70DFEA369186A07B030BD034C87
:103E1000FDF7AEFCA369186A07B030BDA8160020F4
:103E2000E111000800000000000000000000000098
:103E300008B50146202383F311880820FFF7D0FF3F
:103E4000002383F3118808BD00000000000000007B
:103E500010B4024659B1084B44689B69042083E8BA
:103E60001400236053605DF8044BFFF7B9BF4FF0B7
:103E7000FF305DF8044B7047A816002000000000DA
:103E800070B520230E46044683F31188C3692BB115
:103E9000984703E0FFF7DCFF002816DBA568204603
:103EA0003146002DF6D0A269A0682169531C8B42CF
:103EB00000F1FF30A361A06028BFE368107828BF3D
:103EC000A361002383F3118870BD85F3118870BD51
:103ED0000C30FFF7D5BF00BF00000000000000005D
:103EE0000C304FF0FF31FFF7CBBF00BF00000000E8
:103EF0000C30FFF7C5BF00BF00000000000000004D
:103F00000C304FF0FF31FFF7BBBF00BF00000000D7
:103F10002DE9F84F04461D46D0F81C804FF0200BC9
:103F20008BF31188002601EB020A01F10109B8F1B7
:103F3000000F05D02046C04702E0FFF789FFF8B91F
:103F4000A76820462946002FF7D0A369A1685A1C0C
:103F50000139A261A1601B7809F8013C2369A269BB
:103F60009A4224BFE368A361002383F31188D145FB
:103F700006F1010606D08BF3118809F10109D6E795
:103F800087F311883046BDE8F88F00BF00000000BD
:103F90000C30FFF7BDBF00BF0000000000000000B4
:103FA0000C304FF0FF33FFF7B3BF00BF000000003D
:103FB0000C30FFF7ADBF00BF0000000000000000A4
:103FC0000C304FF0FF33FFF7A3BF00BF000000002D
:103FD000F8B504460F461646202383F3118803E004
:103FE000FFF736FF002819DBA56820463146002D73
:103FF000F6D06369A1685A1C01396261A1601F7023
:10400000236962699A4224BFE3686361E3690BB183
:1040100020469847002080F31188F8BD85F3118869
:10402000F8BD00BF0000000000000000000000001C
:104030003030FFF7CDBF00BF0000000000000000DF
:1040400030304FF0FF32FFF7C3BF00BF0000000069
:104050003030FFF7BDBF00BF0000000000000000CF
:1040600030304FF0FF32FFF7B3BF00BF0000000059
:104070002DE9F04F83B004460D4616460193D0F863
:104080001C804FF0200A8AF311880027B946A368E4
:1040900005F1010B204603B36369A1684A1E591C50
:1040A0006161A2602978197023696169994224BF0E
:1040B000E3686361B8F1000F00D0C04789F311884D
:1040C000013E07F1010712D08AF31188A3685D460B
:1040D00005F1010B2046002BDED12046019900930B
:1040E000FFF7B6FE009B0028D1D083F31188384635
:1040F00003B0BDE8F08F00BF00000000000000002A
:104100002DE9F04FDFF8A0B15D495E4C5E4D5F4E8A
:10411000DFF898A15E4FDFF89891DFF8988181B0C1
:1041200001F08EF9584602F083FC594602464FF0E2
:10413000FF332046FFF79CFF2846FFF779FE304605
:1041400002F076FC314602464FF0FF332046FFF77F
:104150008FFF2846FFF76CFE504602F069FC51467F
:1041600002464FF0FF332046FFF782FF012002F0A6
:104170005FFC394602464FF0FF332046FFF778FFD9
:10418000484602F055FC494602464FF0FF332046B0
:10419000FFF76EFF012002F04BFC394602464FF05C
:1041A000FF332046FFF764FF404602F041FC4146E2
:1041B00002464FF0FF332046FFF75AFF012002F07E
:1041C00037FC394602464FF0FF332046FFF750FFD9
:1041D000304802F02DFC2F4902464FF0FF332046B5
:1041E000FFF746FF012002F023FC394602464FF05C
:1041F000FF332046FFF73CFF2748284F02F018FC0A
:10420000254902464FF0FF332046FFF731FF28468D
:10421000FFF70EFE304602F00BFC314602464FF02F
:10422000FF332046FFF724FF2846FFF701FE1C4816
:104230001C4E02F0FDFB1A4902464FF0FF332046A8
:10424000FFF716FF2846FFF7F3FD384602F0F0FBB4
:10425000394602464FF0FF332046FFF709FF284654
:10426000FFF7E6FD304602F0E3FB314602464FF031
:10427000FF33204601B0BDE8F04FFFF7F9BE00BFA5
:10428000F06F000898130020A0860100600800204D
:1042900084080020880800205008002070080020B2
:1042A000180800205408002098080020A0080020CA
:1042B000AC080020C0080020000000000000000042
:1042C0003030FFF7D5BE00BF000000000000000046
:1042D00030304FF0FF33FFF7CBBE00BF00000000CF
:1042E0003030FFF7C5BE00BF000000000000000036
:1042F00030304FF0FF33FFF7BBBE00BF00000000BF
:10430000F8B50D4F0D4E0E4D0E4C0F4B3860022779
:104310000720198032602F602060202383F31188EA
:104320000A4B186818B100221A6001F031F8002316
:1043300083F31188F8BD00BF10080020380D00205D
:10434000000D0020080800200C0D0020100D00209A
:104350002DE9F047074600F144050446FF2604F81E
:10436000016BA542FBD17818854204D2552405F88B
:10437000014B8542FBD1202080F31188184DDFF8D6
:1043800064906E69A1F124003918002407F1280E09
:1043900007F1240C4FF0020A4FF00108F9603B507E
:1043A0004C60C1F820903846BA603D617E617C77F0
:1043B000FA63BC637C63BC6187F81CA087F81E802D
:1043C0003761C7F824C0C7F828E0C7F82CE06F6150
:1043D00000F0DEFF84F311883846BDE8F08700BFA7
:1043E000A816002091020008000000000000000054
:1043F0000348044B4FF4A4714022FFF7A9BF00BF4C
:104400008822002071640008000000000000000005
:1044100038B590F83430062B04460AD8012202FA47
:1044200003F313F0670F11D113F0080502D1DB0677
:1044300022D438BDC3689B699B68002BF9D1036CFB
:1044400003B19847002384F8343038BD036D4268C7
:10445000D3F80019126841F40011C3F80019D3F819
:10446000001B41F40011C3F8001B0AB1052190475D
:10447000062384F8343038BDC3685B69052280F8B0
:10448000342029461D70DD605D609D6001F040FABA
:10449000202383F311882046294601F0F9F985F39A
:1044A000118838BD0000000000000000000000007E
:1044B0002DE9F041056D05EB41130646D3F8084997
:1044C000C3F80849E3070F4603D5D5F81038DA07D3
:1044D0000AD4230606D50122D5F8343802FA07F7A4
:1044E0001F422BD1BDE8F08100EB8103DA685369EC
:1044F000D3F804E0D3F810C0E64538D2CEEB0C0276
:104500004FF000085A60C3F8088001F001FA202338
:1045100083F31188336D03EB47120120D2F80019A1
:1045200041F00441C2F80019D3F8341800FA07F238
:104530000A43C3F8342888F31188CAE7202383F399
:104540001188F26DD5F83418336E3A4321EA070723
:10455000F265C5F834782BB10022326618461A622B
:10456000FDF71EF9002383F31188BDE8F081B0F850
:1045700008E093684FF0010C0CFA01F22EEA0202F7
:1045800002819847A5E700BF00000000000000007E
:104590002DE9F047834E346D6369A5691D40EA0437
:1045A000656136D4AB0448BFD4F808382F0704D56A
:1045B0007368DB680BB17B489847E80600F1AC8074
:1045C0006903D4F818480BD5E20700F1D080A3079F
:1045D00000F1D480670700F1D880260700F1DC8065
:1045E0002D030AD5E00300F1B380A10300F1B780E9
:1045F000620300F1A580230303D4BDE8F047FCF774
:1046000097BE6848032101F013FABDE8F047FCF7B4
:104610008FBE002302212022A6F84C3086F84E30AF
:1046200086F84F30F36033617361B36186F83430DC
:104630003381738131702261226912F02008FBD12D
:104640000C20FDF705FDD6F854E0DEF80870424670
:104650004FF00060FF2104EB42130132BA42C3F86D
:104660000009C3F8000BC3F80819C3F8081BF2D9F6
:10467000DEF80030B365336DDEF800104FF0FF3721
:104680004FF001101022C4F81878C4F81C086162B9
:104690001A61196911F01007FBD10C20FDF7D8FC45
:1046A000D4F800187368B06DD3F800C03E4ADFF844
:1046B000FC90DFF8F08021F4FE63C4F80038A369B1
:1046C00043F44023092100F1100A43F0100340F4A1
:1046D0008010A361C4F81018C6F858A0C4F81418C4
:1046E000C6F80C90C4F8107BC4F8002BC4F81079FD
:1046F000C4F80029A062BCF1000F3FF453AF40465C
:104700003946E047D8F804301B68002B3FF44AAF25
:1047100040463946984745E7202383F31188A2692C
:10472000336E204922F01002A2612BB100220A66EA
:1047300018461A62FDF734F8002383F311883FE727
:104740001848022101F074F923037FF556AF58E7AA
:104750000021144801F06CF9A1037FF549AF11481D
:10476000012101F065F962037FF545AFE8E70D48E7
:104770000021FFF79DFEA3077FF52CAF094801211B
:10478000FFF796FE67077FF528AF06480221FFF77F
:104790008FFE26077FF524AF02480321FFF788FE2E
:1047A0001EE700BFB81100204080001020700008F4
:1047B0002DE9F0436D4DD5F89460D6F80C90336830
:1047C000D80583B09CB200F18380202383F3118845
:1047D00014F02F0F48D0654F07F10C0807E0A10631
:1047E00073681DD43468A4B214F02F0F3CD0210795
:1047F000F5D014F0080F14BF80210021E20748BF54
:1048000041F02001A30748BF41F04001600748BFC5
:1048100041F480715648FCF7DBFFA1067368E1D5CF
:104820006A69002A42D02A6A696A8A4248D068695D
:10483000511C01302962686113702A6AEB699A423F
:1048400001D3BB693B62EB684345CBD01A68FA6081
:104850000021C2F8048018461962FCF7A1FF3468F1
:10486000A4B214F02F0FC2D1002383F3118819F0E2
:10487000800F01D022063AD4630612D5202383F399
:1048800011886A6CAB6C39489A4257D04FF6BF73A7
:1048900009EA03036FF04002F3600023326083F300
:1048A000118803B0BDE8F043FCF742BD0421304855
:1048B0000193FCF78DFF2A6A696A019B8A42B6D18F
:1048C00079690029B3D02A488021FCF781FF89E764
:1048D000202383F311884FF40071281DFCF778FF23
:1048E0006FF480733360002383F311886DE7202316
:1048F00083F31188AB6C6A6C1C489A4226D0A86B73
:104900001A495A1C0130A863AA641F782B6C9A427A
:1049100001D3CB6B8B6415492B6B01F130029342B1
:1049200007D0186808630021426018461962FCF736
:1049300037FF7760002383F311889DE7836B002B9B
:10494000A4D004301021FCF743FF9FE7826B002ABC
:10495000D5D004300821FCF73BFF4FF63F7309EA3E
:10496000030343F04003F360E4E700BF6813002053
:104970006C13002000000000000000000000000098
:104980000229F8B50D46064643D1202383F311884A
:10499000204C214A012101F093F8304629461F4A54
:1049A00001F08EF8D4F85422A3691668636204F10A
:1049B0000C070025384623626FF001016561FDF7A1
:1049C0009FF8E36B226CA364D21A6364A26304F1C0
:1049D00030006FF00101FDF793F8201D0121FCF775
:1049E000F7FED4F85432597906EB81030120DA68D6
:1049F0009369528A5A60DF609D601870304600F0FB
:104A0000AFFFD4F854323046597900F061FF85F396
:104A10001188F8BD18240020C0760008E070000856
:104A200038B590F834300446062B1AD8DFE803F086
:104A300004392104041A0400036D4268D3F80019F4
:104A4000126841F40011C3F80019D3F8001B41F4B7
:104A50000011C3F8001B0AB105219047062384F812
:104A6000343038BD036C03B19847002384F83430E8
:104A700038BDC3689B690025032284F83420294689
:104A80001D70DD605D609D60204600F069FF2023A1
:104A900083F311882046294600F01AFF85F3118818
:104AA00038BD90F84B1090F84A30C26B43EA0123AE
:104AB0009342C368DED9198AB2FBF1F501FB1525D3
:104AC000002DD7D15B6929461D70DD605D609D605A
:104AD00000F01EFF202383F311882046294600F0B2
:104AE000D7FE85F31188022384F8343038BD00BF27
:104AF000002970B5064604DD1949BDE8704000F094
:104B00009FBC202383F311881648FCF709FF00247B
:104B100084F31188144B9B68F3B125465A681B68CF
:104B200001341544002BF9D10E48FCF7C1FE0F4AA1
:104B30000F4B12681B680F49D21A304600F080FCF8
:104B4000224630460C4900F07BFC30462A460B4991
:104B5000BDE8704000F074BC1C461D46E4E700BF91
:104B600050700008901D0020801D0020681F00204C
:104B7000781D0020607000088070000898700008A0
:104B800000EB810170B5CB6800221B6A80F83420ED
:104B9000196842685B6883644164936804465BB348
:104BA000984748B3E56B94F8443094F84B1094F868
:104BB0004A2042EA0122AA423CBFE263154613F0B2
:104BC000800FE36840F09380002D78D15B69052267
:104BD00084F8342020461D70DD605D609D602946AC
:104BE00000F096FE202383F311882046294600F02A
:104BF0004FFE85F3118870BD94F8443013F06006C1
:104C000016D0226DD2F80019636841F40011C2F881
:104C10000019D2F8001B1B6841F40011C2F8001BF8
:104C200013B1204605219847062384F8343070BD1F
:104C300094F8455003F07F0242EA0525B5F5407F20
:104C400000F0198117D9B5F5C06F00F0F1807DD95A
:104C5000B5F5106F00F08D8040F60242954200F0ED
:104C60000381B5F5006FCCD104F14F020125266414
:104C7000A263E56399E7022D00F0C18040F2B580A0
:104C8000B5F5807F00F0A180B5F5817FB9D194F8AA
:104C90004620002AB5D194F8482012F00F0163D0C5
:104CA000236D120603EB411100F11581D1F8003B91
:104CB00023F40013C1F8003B94F8443054E09B699E
:104CC000A26B0026042184F834102046DA605D606F
:104CD0001E709E60314600F043FE202383F311884E
:104CE0002046314600F0F4FD86F3118870BDBDB159
:104CF0005B69A26B0026012184F834102046DA603B
:104D00005D601E709E60314600F002FE202383F33A
:104D100011882046314600F0BBFD86F3118870BD36
:104D20009B69032284F8342020461D70DD605D609D
:104D30009D60294600F014FE202383F3118820464D
:104D4000294600F0C5FD85F3118870BD40F202329E
:104D5000954221D0B5F5A06F7FF453AFB4F844204D
:104D6000B2F5A06F00F09F800025A563E563256480
:104D70001BE794F8462084F84F20002A40F08B80EF
:104D80000322227062681268002AEDD020460221B8
:104D9000904794F84430E7E794F84620002A7FF4DF
:104DA00030AF94F8482012F00F01DDD0236D03EBF3
:104DB0004111130600F19880D1F8003B43F4001331
:104DC000C1F8003B94F84430CEE794F84620012A1D
:104DD0007FF417AFB4F84C20A66322F00202E6631A
:104DE00026643546A4F84C20DFE6002D39D1022296
:104DF00004F14C012564A163E2631546D5E694F8FD
:104E00004820110653BF02F00F0102F00F0202F119
:104E1000480158314901226D515808047FF5F2AE1E
:104E200011F400113AD1354AE5632164A263BCE66E
:104E3000626894F8490094F84830556894F847102F
:104E400094F8462043EA00232046A84700283FF470
:104E5000D8AE43680568E563A363266494F84430DC
:104E6000A3E6012D7FF4CDAE254AA26302250022E0
:104E7000E563226499E694F84620012A7FF4C1AEE6
:104E8000B4F84C20A66342F00202E663266435467D
:104E9000A4F84C2089E60422227073E7194AE563DE
:104EA0002664A26381E694F84620236D84F84E20A0
:104EB000D3F80008616820F4FE600D6840EA021231
:104EC000C3F8002815B120460121A847032294F811
:104ED0004430227048E7D1F8003923F40013C1F8B8
:104EE000003994F844303FE7D1F8003943F4001317
:104EF000C1F8003994F8443036E700BF107000085C
:104F000010710008D07000080000000000000000D0
:104F100070B588B005469DF8006001E0FEF788FF97
:104F200001F03EF8C4B222460A49284600F088FA49
:104F300028460849324600F083FA212C4FF06400DD
:104F4000ECD105492846224608B0BDE8704000F083
:104F500077BA00BFC4700008B870000800000000F5
:104F6000F0B400F10B0700F10A050C46B1FBF2F6B4
:104F700002FB161101F13003392BC8BF01F13703D1
:104F8000DBB2B4FBF2F431462E4605F80139002CB1
:104F9000ECD1B91B3246014401E012F8013F00F8A0
:104FA000013B8842F9D1F0BC704700BF000000000F
:104FB0002DE9F04F89B005AB0DF1150C0193C3EB52
:104FC0000C03CDF800C083460C46154603934FF002
:104FD00000082178631C69B125290FD0DBF8002077
:104FE0001C46926858469047217808F10108631CD6
:104FF0000029F1D1404609B0BDE8F08F62782D2A32
:1050000003BFA278A31C4FF0010A4FF0000A302A18
:1050100003BF5A780133302620261C46002706E0BD
:105020002B78043507EB8707227803EB4707A2F1BB
:105030003003DBB2092B04F10104F3D92A2AEFD0A3
:105040002E2A4FF000012BD002F0DF034C2B34D07E
:10505000A2F14403342B00F2B680DFE803F0ACB4D5
:10506000B4B4B4ACB4B4B4B4B4AAB4B4B4B4B43492
:10507000B4B47DB4B4B4B4B4B4B4B4B4B49FACB444
:10508000B4B4B4ACB4B4B4B4B4AAB4B4B47FB434A7
:10509000B4B47D002B78043501EB810103EB4101B1
:1050A00014F8012BA2F13003DBB2092BF4D92A2A20
:1050B000F0D002F0DF034C2BCAD12378002BC7D0ED
:1050C00001341A46C4E70A22296805A80435FFF707
:1050D00047FF019BC01A00F1FF3CCDF808C00DF15D
:1050E00014093F1A27EAE777BAF1000F12D17F427D
:1050F00087B199F800102D296DD0BA46DBF8003041
:1051000058469B68314698471AF1010AF6D1C7EB19
:1051100008085746029A002A0FDB09F1FF3A91442A
:10512000DBF800301AF8011F9B6858469847CA45BB
:10513000F6D1029B08F101089844002F3FF449AFD3
:10514000B946DBF8003058469B6831469847B9F1BC
:105150000109F6D1B8443CE71022B5E7D5F8009034
:10516000304BB9F1000F08BF994647F6FF7399F825
:1051700000000435002908BF194600284CD04944D6
:105180004B4601E0994238D05A780133002AF9D1D0
:10519000C9EB0300431E02932026A2E703982B6865
:1051A0008DF81430421E0435029220260DF11409A8
:1051B00097E7082288E72968002905F1040524DB20
:1051C00005A80A2283E703988DF81420421E029254
:1051D0000DF1140985E7302E8FD1DBF800305846E9
:1051E0009B689847DDF808C00CF1FF3C09F1010904
:1051F00008F10108CDF808C07FE7C9EB010000F114
:10520000FF3CCDF808C020266BE72D2349428DF8DE
:1052100014300DF11500D4E74FF0FF330293202630
:105220005FE700BFF0710008000000000000000010
:10523000024B4FF400425A83704700BF000C0240FB
:10524000022906D0032906D00748012918BF0020EB
:10525000704706487047032A03D8054800EBC20090
:1052600070470020704700BF707500086075000827
:105270006071000800000000000000000000000055
:10528000024BDA6842F08002DA6070470048004062
:1052900038B5174DAB691A69DC681440E2B2D243E5
:1052A0001A61A30704D56B681B690BB128469847A0
:1052B000600704D56B689B690BB10D4898472107BF
:1052C00004D56B681B6A0BB109489847E20604D500
:1052D0006B689B6A0BB106489847E30704D56B6877
:1052E0009B680BB102489847BDE83840FCF720B8EE
:1052F000EC1B002000000000000000000000000087
:10530000144B10B51A69DC68144004F01E02D24335
:10531000A0071A6104D5104843681B6903B1984778
:10532000610704D50C4843689B6903B1984722077D
:1053300004D5094843681B6A03B19847E30604D5BE
:10534000054843689B6A03B19847BDE81040FBF7E6
:10535000EFBF00BF00000140D01B00200000000094
:105360000648074A08B543689B686FF00101116160
:1053700003B19847BDE80840FBF7DABFD01B002017
:1053800000000140000000000000000000000000DC
:10539000DFF858C0F0B4DCF818708568BC680023EA
:1053A000A542064603620CD8037763461B689A68D9
:1053B0009542FBD95A687260336016605E60F0BC3B
:1053C00070473B7763461B689A689442FBD95A68DA
:1053D0007A6001243B6017605F603477394630465D
:1053E000CCF81860F0BCFAF74BBF00BFA81600203D
:1053F000014B5B6883607047001000E00000000014
:1054000038B504460D4690B1286020460B4901F09E
:1054100067FB04442046094901F03AFB60B1421C95
:1054200000232A600370237823B1204638BD0C681E
:10543000002CEAD1002038BD2860F4E7F87100089C
:105440000EB400B582B003AA52F8041B0192FFF714
:10545000AFFD02B05DF804EB03B070470000000040
:105460002DE9F047002984B0064605DD1D4904B04A
:10547000BDE8F047FFF7E4BF1B49FFF7E1FF4FF03E
:10548000200989F31188194F3C69A37F0133A37761
:105490004FF0000888F31188DFF858A000E02C4690
:1054A000A268E3680092A27F1149013A0192227F2B
:1054B0005AF82220029230462246FFF7C1FF89F3B4
:1054C00011882569BD421DBFAB7F0133AB77002535
:1054D00088F311882046FCF78BFA002DDFD104B049
:1054E000BDE8F087FC71000810720008A8160020C3
:1054F00038720008B07100080000000000000000D1
:1055000010B5002982B0044601DD02B010BD0E497D
:10551000FFF796FF0D4B1868036801A904225B682A
:10552000984701A801F0FCFA094B186001A801F0A6
:10553000F7FA084B08491880024692B22046FFF756
:105540007FFF02B010BD00BF54720008C4080020E5
:105550000C080020140D00206872000800000000F4
:10556000002900B504DC05495DF804EBFFF768BFCE
:1055700003495DF804EBFFF763BF00BF90720008BA
:105580008072000800000000000000000000000021
:105590000EB400B582B003AA52F8041B0192FFF7C3
:1055A00007FD02B05DF804EB03B070470000000097
:1055B00010B5002982B0044606DD1949194A02B027
:1055C000BDE81040FFF7E4BF1749184AFFF7E0FFB6
:1055D00020461749174AFFF7DBFF20461649174AAE
:1055E000FFF7D6FF20461649164AFFF7D1FF20469F
:1055F0001549164AFFF7CCFF20461549154AFFF713
:10560000C7FF20461449154AFFF7C2FF144B009309
:1056100020461449144A154BFFF7BAFF02B010BDDB
:105620004C6E00089C6E0008A0720008B47200085E
:10563000BC720008D0720008F07200080473000801
:1056400010730008247300083073000844730008C6
:105650005C730008707300089C730008B073000846
:1056600000740008D8730008F0730008FC73000889
:10567000002903DD0749084AFFF78ABF202383F387
:1056800011884FF080420023526A83F31188034946
:10569000FFF77EBF4C6E0008A46E00080C74000873
:1056A000024B013853F82000704700BF8C260020C1
:1056B00010B5002982B0044604DD1749FFF7C0FE8B
:1056C00002B010BD0120FFF7EBFF1449024620464F
:1056D000FFF7B6FE124B1868036801A95B68042245
:1056E000984701AA0F492046FFF7AAFE01A801F03A
:1056F00017FA0D4B38B980220C495A832046FFF720
:105700009FFE02B010BD802209491A832046FFF790
:1057100097FE02B010BD00BF147400081C7400088E
:10572000C4080020347400080010024054740008BB
:1057300048740008000000000000000000000000A5
:10574000013801280DD0022806D000B17047074B60
:105750001869C0F380007047044B1869C0F300104B
:105760007047024B1869C0F3C00070470010024038
:10577000421E012A0DD0022A06D002B17047074806
:1057800004210122FBF76CBD044810210122FBF724
:1057900067BD02480821FBF763BD00BF001002404F
:1057A000421E012A10B514D0022A09D002B110BD40
:1057B0000C4C04212046FBF753FD0423A36110BDCC
:1057C000084C102120460022FBF74AFD1023A3615C
:1057D00010BD044C082120460022FBF741FD0823A0
:1057E000A36110BD00100240000000000000000096
:1057F00010B520B10846BDE81040FFF7D1BF4A1EE2
:10580000012A03D0022A14D04AB110BD0E4C08213F
:105810002046FBF725FD4FF40023A36110BD0A4C81
:10582000042120460122FBF71BFD4FF48023A361D6
:1058300010BD054C102120460122FBF711FD4FF44D
:105840008013A36110BD00BF0010024000000000E3
:10585000014B1B60704700BF7C1D00200000000052
:1058600070B4202383F311888469C36801F10C05A7
:10587000012606FA01F104EB85040B43C360002303
:10588000626083F3118870BC704700BF00000000A5
:10589000F0B4012404FA01F50389AAB212EA03075D
:1058A00002D02046F0BC7047066D06EB4111134351
:1058B000D1F80049038144F00443C1F80039D6F817
:1058C00034381D433846C6F83458F0BC704700BF22
:1058D00030B4012404FA01F2438992B212EA0305BA
:1058E00002D0204630BC7047046D04EB41111343D5
:1058F000D1F8004B438144F080632846C1F8003B57
:1059000030BC7047000000000000000000000000F4
:1059100000EB810330B4DC68626953681361A3B1A2
:1059200069B15D1E228A006DAC18B4FBF2F200EB87
:10593000411143EAC243C1F8103930BC7047402BD3
:10594000EFD9402353603F25ECE7036D03EB411192
:105950004FF40023C1F8103930BC7047000000003C
:1059600000EB810330B4DC68A2695368136131B97C
:10597000402B04D940255560094B3F2502E05D1EB0
:1059800043F0C043628A006DAC18B4FBF2F200EB46
:10599000411143EAC242C1F8102B30BC704700BF2E
:1059A0004000006000000000000000000000000057
:1059B000F8B5046AD4F8542213681978042900D081
:1059C000F8BD217A0229FBD151795A8903EB810371
:1059D0000125D86805FA01F31A40468AF0D1E0693A
:1059E000A1696769431ADB1B9E42E9D882F31188DB
:1059F000D4F854120868497900EB8107B3FBF6F339
:105A0000FF68BF6906FB03F604F10C03FB607E60D0
:105A10003D70BA60FFF7A4FF202383F31188D4F808
:105A2000543218685979BDE8F840FFF751BF00BFFC
:105A3000F8B5076D07EB41130546D3F8084BC3F8DB
:105A4000084B22070E4603D5D7F814381B0719D484
:105A5000E20716D5D7F81438DB0712D505EB860315
:105A6000DA68936959681869814211D36989D368E2
:105A7000012000FA06F221EA02026A813146284634
:105A80009847F8BD00EB8103DB685B689847DFE768
:105A9000411A002459609C6028463146FFF760FF98
:105AA000202383F311882B6D03EB4616D6F8003BB9
:105AB00043F08063C6F8003B84F31188F8BD00BF53
:105AC0002DE9F0470746506914460E4618B10021EB
:105AD000142200F035FFA06918B10021142200F053
